:0C800000F8B5C046F8BC08BC9E467047AE
:10800C00084B10B50400002B02D0002100E000BF8B
:10801C00054B1868836A002B01D000F007F820008C
:10802C0000F022F900000000848200001847C046CE
:10803C0010B5074C2378002B07D1064B002B02D030
:10804C00054800E000BF0123237010BC01BC0047B1
:10805C00FC8201000000000090820000054B10B56E
:10806C00002B03D00449054800E000BF10BC01BC44
:10807C000047C04600000000008301009082000011
:10808C00D8309FE5000053E3CC309F0503D0A0E12E
:10809C0000200FE10F0012E31500000AD1F021E3DC
:1080AC0003D0A0E101AA4DE20A30A0E1D7F021E310
:1080BC0003D0A0E1013A43E2DBF021E303D0A0E1DD
:1080CC00013A43E2D2F021E303D0A0E1023A43E2C9
:1080DC00D3F021E303D0A0E1023943E2FF30C3E344
:1080EC00FF3CC3E3043003E5002053E9C02082E3E6
:1080FC0002F021E101A843E20010B0E301B0A0E1DD
:10810C000170A0E160009FE560209FE5002052E037
:10811C0001308FE213FF2FE100F09EF8114B002B82
:10812C0001D0FE469F46104B002B01D0FE469F46C9
:10813C000020002104000D000E48002802D00E483B
:10814C0000E000BF00F05EF82000290000F016F8F7
:10815C00FFF756FF7B461847110000EF00000800A0
:10816C00000000000000000000000000FC82010084
:10817C0018830100000000000000000080B582B0F0
:10818C0000AF1B4B1A681A4B04210A431A60194B97
:10819C001A68184B18490A401A60164B1A68154B86
:1081AC00802189030A431A60144B1A68134B8021EF
:1081BC0089010A431A6000237B6002E07B6801336B
:1081CC007B607A68F423FF339A42F7DD0B4B1A6815
:1081DC000A4B0B490A401A6000233B6002E03B68E3
:1081EC0001333B603A68F423FF339A42F7DDDBE757
:1081FC001810024004080140FFFF0FFF0C10024052
:10820C00FFDFFFFF70B500260E4D0F4C641BA41052
:10821C00A6420BD10026FFF7EDFE0C4D0C4C641B57
:10822C00A410A64208D170BC01BC0047B300EB58A7
:10823C0000F010F80136EBE7B300EB5800F00AF849
:10824C000136EEE7948201009482010094820100D1
:10825C00988201001847C04603001218934200D1BF
:0A826C00704719700133F9E7FEE7CF
:0C827800F8B5C046F8BC08BC9E46704734
:048284009C820100D7
:0882880004FEFF7F010000006D
:0482900000000000EA
:020000021000EC
:0482940069800000FD
:048298003D80000025
:10829C0000000000000000000000000000000000D2
:1082AC0000000000000000000000000000000000C2
:1082BC0000000000000000000000000000000000B2
:1082CC0000000000000000000000000000000000A2
:1082DC000000000000000000000000000000000092
:1082EC000000000000000000000000000000000082
:040000030000808CED
:00000001FF
